{
  "contractName": "YieldManager",
  "abi": [
    {
      "inputs": [
        {
          "internalType": "address",
          "name": "_verifier",
          "type": "address"
        },
        {
          "internalType": "address",
          "name": "_pancakeFactory",
          "type": "address"
        },
        {
          "internalType": "address",
          "name": "_positionManager",
          "type": "address"
        },
        {
          "internalType": "address",
          "name": "_baseToken",
          "type": "address"
        },
        {
          "internalType": "uint256",
          "name": "_priceLimit",
          "type": "uint256"
        }
      ],
      "stateMutability": "nonpayable",
      "type": "constructor"
    },
    {
      "anonymous": false,
      "inputs": [
        {
          "indexed": true,
          "internalType": "address",
          "name": "previousOwner",
          "type": "address"
        },
        {
          "indexed": true,
          "internalType": "address",
          "name": "newOwner",
          "type": "address"
        }
      ],
      "name": "OwnershipTransferred",
      "type": "event"
    },
    {
      "anonymous": false,
      "inputs": [
        {
          "components": [
            {
              "internalType": "address",
              "name": "pool",
              "type": "address"
            },
            {
              "internalType": "uint256",
              "name": "amount",
              "type": "uint256"
            }
          ],
          "indexed": false,
          "internalType": "struct YieldManager.PoolAllocation[]",
          "name": "newAllocations",
          "type": "tuple[]"
        }
      ],
      "name": "PoolRebalanced",
      "type": "event"
    },
    {
      "anonymous": false,
      "inputs": [
        {
          "indexed": false,
          "internalType": "uint256",
          "name": "newPriceLimit",
          "type": "uint256"
        }
      ],
      "name": "PriceLimitUpdated",
      "type": "event"
    },
    {
      "anonymous": false,
      "inputs": [
        {
          "indexed": false,
          "internalType": "uint256",
          "name": "optimalYield",
          "type": "uint256"
        },
        {
          "indexed": false,
          "internalType": "uint256",
          "name": "liquidityAllocated",
          "type": "uint256"
        },
        {
          "indexed": false,
          "internalType": "uint256",
          "name": "timestamp",
          "type": "uint256"
        }
      ],
      "name": "StrategyUpdated",
      "type": "event"
    },
    {
      "anonymous": false,
      "inputs": [
        {
          "indexed": true,
          "internalType": "address",
          "name": "user",
          "type": "address"
        },
        {
          "indexed": false,
          "internalType": "uint256",
          "name": "amount",
          "type": "uint256"
        }
      ],
      "name": "YieldClaimed",
      "type": "event"
    },
    {
      "inputs": [],
      "name": "baseToken",
      "outputs": [
        {
          "internalType": "address",
          "name": "",
          "type": "address"
        }
      ],
      "stateMutability": "view",
      "type": "function"
    },
    {
      "inputs": [
        {
          "internalType": "uint256",
          "name": "",
          "type": "uint256"
        }
      ],
      "name": "currentAllocations",
      "outputs": [
        {
          "internalType": "address",
          "name": "pool",
          "type": "address"
        },
        {
          "internalType": "uint256",
          "name": "amount",
          "type": "uint256"
        }
      ],
      "stateMutability": "view",
      "type": "function"
    },
    {
      "inputs": [],
      "name": "currentStrategy",
      "outputs": [
        {
          "internalType": "uint256",
          "name": "optimalYield",
          "type": "uint256"
        },
        {
          "internalType": "uint256",
          "name": "liquidityToAllocate",
          "type": "uint256"
        },
        {
          "internalType": "uint256",
          "name": "timestamp",
          "type": "uint256"
        }
      ],
      "stateMutability": "view",
      "type": "function"
    },
    {
      "inputs": [],
      "name": "owner",
      "outputs": [
        {
          "internalType": "address",
          "name": "",
          "type": "address"
        }
      ],
      "stateMutability": "view",
      "type": "function"
    },
    {
      "inputs": [],
      "name": "pancakeFactory",
      "outputs": [
        {
          "internalType": "contract IPancakeV3Factory",
          "name": "",
          "type": "address"
        }
      ],
      "stateMutability": "view",
      "type": "function"
    },
    {
      "inputs": [],
      "name": "positionManager",
      "outputs": [
        {
          "internalType": "contract INonfungiblePositionManager",
          "name": "",
          "type": "address"
        }
      ],
      "stateMutability": "view",
      "type": "function"
    },
    {
      "inputs": [],
      "name": "priceLimit",
      "outputs": [
        {
          "internalType": "uint256",
          "name": "",
          "type": "uint256"
        }
      ],
      "stateMutability": "view",
      "type": "function"
    },
    {
      "inputs": [],
      "name": "renounceOwnership",
      "outputs": [],
      "stateMutability": "nonpayable",
      "type": "function"
    },
    {
      "inputs": [
        {
          "internalType": "address",
          "name": "newOwner",
          "type": "address"
        }
      ],
      "name": "transferOwnership",
      "outputs": [],
      "stateMutability": "nonpayable",
      "type": "function"
    },
    {
      "inputs": [
        {
          "internalType": "address",
          "name": "",
          "type": "address"
        }
      ],
      "name": "userYields",
      "outputs": [
        {
          "internalType": "uint256",
          "name": "",
          "type": "uint256"
        }
      ],
      "stateMutability": "view",
      "type": "function"
    },
    {
      "inputs": [],
      "name": "zkVerifier",
      "outputs": [
        {
          "internalType": "contract IVerifier",
          "name": "",
          "type": "address"
        }
      ],
      "stateMutability": "view",
      "type": "function"
    },
    {
      "inputs": [
        {
          "internalType": "uint256",
          "name": "_optimalYield",
          "type": "uint256"
        },
        {
          "internalType": "uint256",
          "name": "_liquidityToAllocate",
          "type": "uint256"
        },
        {
          "internalType": "uint256[2]",
          "name": "proof_a",
          "type": "uint256[2]"
        },
        {
          "internalType": "uint256[2][2]",
          "name": "proof_b",
          "type": "uint256[2][2]"
        },
        {
          "internalType": "uint256[2]",
          "name": "proof_c",
          "type": "uint256[2]"
        }
      ],
      "name": "updateYieldStrategy",
      "outputs": [],
      "stateMutability": "nonpayable",
      "type": "function"
    },
    {
      "inputs": [
        {
          "components": [
            {
              "internalType": "address",
              "name": "pool",
              "type": "address"
            },
            {
              "internalType": "uint256",
              "name": "amount",
              "type": "uint256"
            }
          ],
          "internalType": "struct YieldManager.PoolAllocation[]",
          "name": "newAllocations",
          "type": "tuple[]"
        },
        {
          "internalType": "uint256[2]",
          "name": "proof_a",
          "type": "uint256[2]"
        },
        {
          "internalType": "uint256[2][2]",
          "name": "proof_b",
          "type": "uint256[2][2]"
        },
        {
          "internalType": "uint256[2]",
          "name": "proof_c",
          "type": "uint256[2]"
        }
      ],
      "name": "checkPriceLimitAndRebalance",
      "outputs": [],
      "stateMutability": "nonpayable",
      "type": "function"
    },
    {
      "inputs": [
        {
          "internalType": "address",
          "name": "pool",
          "type": "address"
        }
      ],
      "name": "getPriceFromPool",
      "outputs": [
        {
          "internalType": "uint256",
          "name": "",
          "type": "uint256"
        }
      ],
      "stateMutability": "view",
      "type": "function"
    }
  ],
  "bytecode": "0x60806040523480156200001157600080fd5b50604051620015cd380380620015cd833981016040819052620000349162000103565b6200003f3362000096565b600180546001600160a01b03199081166001600160a01b039788161790915560028054821695871695909517909455600380548516938616939093179092556008805490931693169290921790556009556200016a565b600080546001600160a01b038381166001600160a01b0319831681178455604051919092169283917f8be0079c531659141344cd1fd0a4f28419497f9722a3daafe3b4186f6b6457e09190a35050565b80516001600160a01b0381168114620000fe57600080fd5b919050565b600080600080600060a086880312156200011c57600080fd5b6200012786620000e6565b94506200013760208701620000e6565b93506200014760408701620000e6565b92506200015760608701620000e6565b9150608086015190509295509295909350565b611453806200017a6000396000f3fe608060405234801561001057600080fd5b50600436106100ea5760003560e01c80638da5cb5b1161008c578063e041cc0611610066578063e041cc0614610261578063e0f1c9c514610274578063f0e1ba2c14610294578063f2fde38b1461029d57600080fd5b80638da5cb5b14610203578063c55dae6314610221578063d6df096d1461024157600080fd5b80636a1ceb2d116100c85780636a1ceb2d14610176578063715018a6146101a3578063791b98bc146101ab5780637d21803b146101f057600080fd5b80630901a3f1146100ef57806319bd9428146101335780634bf1716814610161575b600080fd5b6101026100fd366004610dc3565b6102b0565b6040805173ffffffffffffffffffffffffffffffffffffffff90931683526020830191909152015b60405180910390f35b610153610141366004610dfe565b600a6020526000908152604090205481565b60405190815260200161012a565b61017461016f366004610f68565b6102f5565b005b60045460055460065461018892919083565b6040805193845260208401929092529082015260600161012a565b610174610488565b6003546101cb9073ffffffffffffffffffffffffffffffffffffffff1681565b60405173ffffffffffffffffffffffffffffffffffffffff909116815260200161012a565b6101536101fe366004610dfe565b61049c565b60005473ffffffffffffffffffffffffffffffffffffffff166101cb565b6008546101cb9073ffffffffffffffffffffffffffffffffffffffff1681565b6001546101cb9073ffffffffffffffffffffffffffffffffffffffff1681565b61017461026f366004610fc4565b61057f565b6002546101cb9073ffffffffffffffffffffffffffffffffffffffff1681565b61015360095481565b6101746102ab366004610dfe565b6108c6565b600781815481106102c057600080fd5b60009182526020909120600290910201805460019091015473ffffffffffffffffffffffffffffffffffffffff909116915082565b6102fd61097d565b6040805180820182528681526020810186905260015491517ff5c9d69e000000000000000000000000000000000000000000000000000000008152909173ffffffffffffffffffffffffffffffffffffffff169063f5c9d69e9061036b9087908790879087906004016110f9565b602060405180830381865afa158015610388573d6000803e3d6000fd5b505050506040513d601f19601f820116820180604052508101906103ac9190611199565b610417576040517f08c379a000000000000000000000000000000000000000000000000000000000815260206004820152600d60248201527f496e76616c69642070726f6f660000000000000000000000000000000000000060448201526064015b60405180910390fd5b604080516060808201835288825260208083018990524292840183905260048a90556005899055600683905583518a8152908101899052928301919091527f9df4bae5baa064f37bf744e8bb7c003e974b673c53d6a3971b4ecbfc78b3cef4910160405180910390a1505050505050565b61049061097d565b61049a60006109fe565b565b60008082905060008173ffffffffffffffffffffffffffffffffffffffff16633850c7bd6040518163ffffffff1660e01b815260040160e060405180830381865afa1580156104ef573d6000803e3d6000fd5b505050506040513d601f19601f8201168201806040525081019061051391906111c6565b505050505050905078010000000000000000000000000000000000000000000000008173ffffffffffffffffffffffffffffffffffffffff168273ffffffffffffffffffffffffffffffffffffffff1661056d9190611292565b61057791906112af565b949350505050565b60015473ffffffffffffffffffffffffffffffffffffffff163314610626576040517f08c379a000000000000000000000000000000000000000000000000000000000815260206004820152602160248201527f4f6e6c79207a6b2d436f70726f636573736f722063616e20726562616c616e6360448201527f6500000000000000000000000000000000000000000000000000000000000000606482015260840161040e565b60005b84518110156106db57600061065a868381518110610649576106496112ea565b60200260200101516000015161049c565b90506009548110156106c8576040517f08c379a000000000000000000000000000000000000000000000000000000000815260206004820152601160248201527f50726963652062656c6f77206c696d6974000000000000000000000000000000604482015260640161040e565b50806106d381611319565b915050610629565b50600184511015610748576040517f08c379a000000000000000000000000000000000000000000000000000000000815260206004820181905260248201527f4174206c65617374206f6e6520616c6c6f636174696f6e207265717569726564604482015260640161040e565b6000604051806040016040528086600081518110610768576107686112ea565b60200260200101516000015173ffffffffffffffffffffffffffffffffffffffff168152602001866000815181106107a2576107a26112ea565b602090810291909101810151015190526001546040517ff5c9d69e00000000000000000000000000000000000000000000000000000000815291925073ffffffffffffffffffffffffffffffffffffffff169063f5c9d69e9061080f9087908790879087906004016110f9565b602060405180830381865afa15801561082c573d6000803e3d6000fd5b505050506040513d601f19601f820116820180604052508101906108509190611199565b6108b6576040517f08c379a000000000000000000000000000000000000000000000000000000000815260206004820152600d60248201527f496e76616c69642070726f6f6600000000000000000000000000000000000000604482015260640161040e565b6108bf85610a73565b5050505050565b6108ce61097d565b73ffffffffffffffffffffffffffffffffffffffff8116610971576040517f08c379a000000000000000000000000000000000000000000000000000000000815260206004820152602660248201527f4f776e61626c653a206e6577206f776e657220697320746865207a65726f206160448201527f6464726573730000000000000000000000000000000000000000000000000000606482015260840161040e565b61097a816109fe565b50565b60005473ffffffffffffffffffffffffffffffffffffffff16331461049a576040517f08c379a000000000000000000000000000000000000000000000000000000000815260206004820181905260248201527f4f776e61626c653a2063616c6c6572206973206e6f7420746865206f776e6572604482015260640161040e565b6000805473ffffffffffffffffffffffffffffffffffffffff8381167fffffffffffffffffffffffff0000000000000000000000000000000000000000831681178455604051919092169283917f8be0079c531659141344cd1fd0a4f28419497f9722a3daafe3b4186f6b6457e09190a35050565b610a7f60076000610d65565b60005b8151811015610d29576007828281518110610a9f57610a9f6112ea565b602090810291909101810151825460018082018555600094855293839020825160029092020180547fffffffffffffffffffffffff00000000000000000000000000000000000000001673ffffffffffffffffffffffffffffffffffffffff928316178155919092015192019190915560085460035484519183169263095ea7b392911690859085908110610b3657610b366112ea565b6020026020010151602001516040518363ffffffff1660e01b8152600401610b8092919073ffffffffffffffffffffffffffffffffffffffff929092168252602082015260400190565b6020604051808303816000875af1158015610b9f573d6000803e3d6000fd5b505050506040513d601f19601f82011682018060405250810190610bc39190611199565b506000828281518110610bd857610bd86112ea565b60200260200101516000015190506000838381518110610bfa57610bfa6112ea565b60200260200101516020015190506000806040518060c001604052806000815260200184815260200183815260200160008152602001600081526020014261012c610c459190611351565b9052600354604080517f219f5d170000000000000000000000000000000000000000000000000000000081528351600482015260208401516024820152908301516044820152606083015160648201526080830151608482015260a083015160a482015291925073ffffffffffffffffffffffffffffffffffffffff169063219f5d179060c4016060604051808303816000875af1158015610ceb573d6000803e3d6000fd5b505050506040513d601f19601f82011682018060405250810190610d0f9190611364565b505050505050508080610d2190611319565b915050610a82565b507f3364c1fb8c9a4164c34f7764cbb8b48f0fe7d8ca1ff5848e392dbbd19503f1f56007604051610d5a91906113b0565b60405180910390a150565b508054600082556002029060005260206000209081019061097a91905b80821115610dbf5780547fffffffffffffffffffffffff000000000000000000000000000000000000000016815560006001820155600201610d82565b5090565b600060208284031215610dd557600080fd5b5035919050565b73ffffffffffffffffffffffffffffffffffffffff8116811461097a57600080fd5b600060208284031215610e1057600080fd5b8135610e1b81610ddc565b9392505050565b7f4e487b7100000000000000000000000000000000000000000000000000000000600052604160045260246000fd5b6040805190810167ffffffffffffffff81118282101715610e7457610e74610e22565b60405290565b604051601f82017fffffffffffffffffffffffffffffffffffffffffffffffffffffffffffffffe016810167ffffffffffffffff81118282101715610ec157610ec1610e22565b604052919050565b600082601f830112610eda57600080fd5b610ee2610e51565b806040840185811115610ef457600080fd5b845b81811015610f0e578035845260209384019301610ef6565b509095945050505050565b600082601f830112610f2a57600080fd5b610f32610e51565b806080840185811115610f4457600080fd5b845b81811015610f0e57610f588782610ec9565b8452602090930192604001610f46565b60008060008060006101408688031215610f8157600080fd5b8535945060208601359350610f998760408801610ec9565b9250610fa88760808801610f19565b9150610fb8876101008801610ec9565b90509295509295909350565b6000806000806101208587031215610fdb57600080fd5b843567ffffffffffffffff80821115610ff357600080fd5b818701915087601f83011261100757600080fd5b813560208282111561101b5761101b610e22565b611029818360051b01610e7a565b828152818101935060069290921b84018101918a83111561104957600080fd5b938101935b82851015611095576040858c0312156110675760008081fd5b61106f610e51565b853561107a81610ddc565b8152858301358382015284526040909401939281019261104e565b97506110a38a8a8301610ec9565b9650505050506110b68660608701610f19565b91506110c58660e08701610ec9565b905092959194509250565b8060005b60028110156110f35781518452602093840193909101906001016110d4565b50505050565b610140810161110882876110d0565b6040808301866000805b6002808210611121575061115b565b835185845b83811015611144578251825260209283019290910190600101611126565b505050938501935060209290920191600101611112565b505050505061116d60c08301856110d0565b61117b6101008301846110d0565b95945050505050565b8051801515811461119457600080fd5b919050565b6000602082840312156111ab57600080fd5b610e1b82611184565b805161ffff8116811461119457600080fd5b600080600080600080600060e0888a0312156111e157600080fd5b87516111ec81610ddc565b8097505060208801518060020b811461120457600080fd5b9550611212604089016111b4565b9450611220606089016111b4565b935061122e608089016111b4565b925060a088015163ffffffff8116811461124757600080fd5b915061125560c08901611184565b905092959891949750929550565b7f4e487b7100000000000000000000000000000000000000000000000000000000600052601160045260246000fd5b80820281158282048414176112a9576112a9611263565b92915050565b6000826112e5577f4e487b7100000000000000000000000000000000000000000000000000000000600052601260045260246000fd5b500490565b7f4e487b7100000000000000000000000000000000000000000000000000000000600052603260045260246000fd5b60007fffffffffffffffffffffffffffffffffffffffffffffffffffffffffffffffff820361134a5761134a611263565b5060010190565b808201808211156112a9576112a9611263565b60008060006060848603121561137957600080fd5b83516fffffffffffffffffffffffffffffffff8116811461139957600080fd5b602085015160409095015190969495509392505050565b60006020808301818452808554808352604092508286019150866000528360002060005b8281101561141057815473ffffffffffffffffffffffffffffffffffffffff1684526001808301548786015293850193600290920191016113d4565b509197965050505050505056fea2646970667358221220a55564060915e7dc148c9c5c87a66b13172867361b06f4441a22c6fbc75ca81b64736f6c63430008150033",
  "immutableReferences": {},
  "source": "// SPDX-License-Identifier: MIT\npragma solidity ^0.8.21;\n\nimport \"@openzeppelin/contracts/token/ERC20/IERC20.sol\";\nimport \"@openzeppelin/contracts/access/Ownable.sol\";\nimport \"@pancakeswap/v3-core/contracts/interfaces/IPancakeV3Pool.sol\";\nimport \"@pancakeswap/v3-core/contracts/interfaces/IPancakeV3Factory.sol\";\nimport \"./IVerifier.sol\"; // Include the zk-SNARK Verifier interface\n\n// Define the INonfungiblePositionManager interface inline\ninterface INonfungiblePositionManager {\n    struct IncreaseLiquidityParams {\n        uint256 tokenId;\n        uint256 amount0Desired;\n        uint256 amount1Desired;\n        uint256 amount0Min;\n        uint256 amount1Min;\n        uint256 deadline;\n    }\n\n    function increaseLiquidity(IncreaseLiquidityParams calldata params)\n        external\n        payable\n        returns (uint128 liquidity, uint256 amount0, uint256 amount1);\n}\n\ncontract YieldManager is Ownable {\n    struct YieldStrategy {\n        uint256 optimalYield;\n        uint256 liquidityToAllocate;\n        uint256 timestamp;\n    }\n\n    struct PoolAllocation {\n        address pool;\n        uint256 amount;\n    }\n\n    IVerifier public zkVerifier;\n    IPancakeV3Factory public pancakeFactory;\n    INonfungiblePositionManager public positionManager;\n    YieldStrategy public currentStrategy;\n    PoolAllocation[] public currentAllocations;\n    address public baseToken;\n    uint256 public priceLimit;\n\n    mapping(address => uint256) public userYields;\n\n    event StrategyUpdated(uint256 optimalYield, uint256 liquidityAllocated, uint256 timestamp);\n    event YieldClaimed(address indexed user, uint256 amount);\n    event PriceLimitUpdated(uint256 newPriceLimit);\n    event PoolRebalanced(PoolAllocation[] newAllocations);\n\n    constructor(\n        address _verifier,\n        address _pancakeFactory,\n        address _positionManager,\n        address _baseToken,\n        uint256 _priceLimit\n    ) {\n        zkVerifier = IVerifier(_verifier);\n        pancakeFactory = IPancakeV3Factory(_pancakeFactory);\n        positionManager = INonfungiblePositionManager(_positionManager);\n        baseToken = _baseToken;\n        priceLimit = _priceLimit;\n    }\n\n    function updateYieldStrategy(\n        uint256 _optimalYield, \n        uint256 _liquidityToAllocate, \n        uint256[2] memory proof_a,\n        uint256[2][2] memory proof_b,\n        uint256[2] memory proof_c\n    ) external onlyOwner {\n        uint256[2] memory publicInputs = [_optimalYield, _liquidityToAllocate];\n        require(\n            zkVerifier.verifyProof(proof_a, proof_b, proof_c, publicInputs),\n            \"Invalid proof\"\n        );\n\n        currentStrategy = YieldStrategy({\n            optimalYield: _optimalYield,\n            liquidityToAllocate: _liquidityToAllocate,\n            timestamp: block.timestamp\n        });\n\n        emit StrategyUpdated(_optimalYield, _liquidityToAllocate, block.timestamp);\n    }\n\n    function checkPriceLimitAndRebalance(\n        PoolAllocation[] memory newAllocations,\n        uint256[2] memory proof_a,\n        uint256[2][2] memory proof_b,\n        uint256[2] memory proof_c\n    ) external {\n        require(msg.sender == address(zkVerifier), \"Only zk-Coprocessor can rebalance\");\n        \n        for (uint256 i = 0; i < newAllocations.length; i++) {\n            uint256 price = getPriceFromPool(newAllocations[i].pool);\n            require(price >= priceLimit, \"Price below limit\");\n        }\n\n        require(newAllocations.length >= 1, \"At least one allocation required\");\n        uint256[2] memory publicInputs = [uint256(uint160(newAllocations[0].pool)), newAllocations[0].amount];\n\n        require(\n            zkVerifier.verifyProof(proof_a, proof_b, proof_c, publicInputs),\n            \"Invalid proof\"\n        );\n\n        rebalancePools(newAllocations);\n    }\n\n    function rebalancePools(PoolAllocation[] memory newAllocations) internal {\n        delete currentAllocations;\n\n        for (uint256 i = 0; i < newAllocations.length; i++) {\n            currentAllocations.push(newAllocations[i]);\n\n            IERC20(baseToken).approve(address(positionManager), newAllocations[i].amount);\n\n            IPancakeV3Pool pancakePool = IPancakeV3Pool(newAllocations[i].pool);\n            \n            uint256 amount0 = newAllocations[i].amount; // Assuming baseToken is token0\n            uint256 amount1 = 0; // Replace with the amount of token1 if applicable\n\n            INonfungiblePositionManager.IncreaseLiquidityParams memory params = INonfungiblePositionManager.IncreaseLiquidityParams({\n                tokenId: 0, // Replace with actual tokenId if you're increasing liquidity of an existing position\n                amount0Desired: amount0,\n                amount1Desired: amount1,\n                amount0Min: 0, // Set to appropriate minimum amounts\n                amount1Min: 0, // Set to appropriate minimum amounts\n                deadline: block.timestamp + 300 // 5 minutes from now\n            });\n\n            positionManager.increaseLiquidity(params);\n        }\n\n        emit PoolRebalanced(currentAllocations);\n    }\n\n    function getPriceFromPool(address pool) public view returns (uint256) {\n        IPancakeV3Pool pancakePool = IPancakeV3Pool(pool);\n        (uint160 sqrtPriceX96, , , , , , ) = pancakePool.slot0();\n        return uint256(sqrtPriceX96) * uint256(sqrtPriceX96) / 2**192;\n    }\n}",
  "sourcePath": "/Users/saikiransurapalli/Desktop/zk_yield_pancake/contracts/YieldManager.sol",
  "compiler": {
    "name": "solc",
    "version": "0.8.21+commit.d9974bed.Emscripten.clang"
  },
  "schemaVersion": "3.4.16",
  "updatedAt": "2024-10-13T19:14:04.538Z",
  "devdoc": {
    "kind": "dev",
    "methods": {
      "owner()": {
        "details": "Returns the address of the current owner."
      },
      "renounceOwnership()": {
        "details": "Leaves the contract without owner. It will not be possible to call `onlyOwner` functions. Can only be called by the current owner. NOTE: Renouncing ownership will leave the contract without an owner, thereby disabling any functionality that is only available to the owner."
      },
      "transferOwnership(address)": {
        "details": "Transfers ownership of the contract to a new account (`newOwner`). Can only be called by the current owner."
      }
    },
    "version": 1
  },
  "userdoc": {
    "kind": "user",
    "methods": {},
    "version": 1
  }
}